{
  "contractName": "variableLabsEscrow",
  "abi": [
    {
      "constant": true,
      "inputs": [],
      "name": "owner",
      "outputs": [
        {
          "name": "",
          "type": "address"
        }
      ],
      "payable": false,
      "stateMutability": "view",
      "type": "function"
    },
    {
      "constant": true,
      "inputs": [],
      "name": "tokenAddress",
      "outputs": [
        {
          "name": "",
          "type": "address"
        }
      ],
      "payable": false,
      "stateMutability": "view",
      "type": "function"
    },
    {
      "constant": true,
      "inputs": [
        {
          "name": "",
          "type": "bytes32"
        }
      ],
      "name": "escrow",
      "outputs": [
        {
          "name": "funds",
          "type": "uint256"
        },
        {
          "name": "depositer",
          "type": "address"
        },
        {
          "name": "receiver",
          "type": "address"
        },
        {
          "name": "resolver",
          "type": "address"
        },
        {
          "name": "fee",
          "type": "uint256"
        },
        {
          "name": "state",
          "type": "uint256"
        },
        {
          "name": "exists",
          "type": "bool"
        }
      ],
      "payable": false,
      "stateMutability": "view",
      "type": "function"
    },
    {
      "constant": true,
      "inputs": [],
      "name": "creationTime",
      "outputs": [
        {
          "name": "",
          "type": "uint256"
        }
      ],
      "payable": false,
      "stateMutability": "view",
      "type": "function"
    },
    {
      "inputs": [
        {
          "name": "_tokenAddress",
          "type": "address"
        }
      ],
      "payable": false,
      "stateMutability": "nonpayable",
      "type": "constructor"
    },
    {
      "anonymous": false,
      "inputs": [
        {
          "indexed": true,
          "name": "_id",
          "type": "bytes32"
        }
      ],
      "name": "Creation",
      "type": "event"
    },
    {
      "constant": false,
      "inputs": [
        {
          "name": "_id",
          "type": "bytes32"
        },
        {
          "name": "_funds",
          "type": "uint256"
        },
        {
          "name": "_receiver",
          "type": "address"
        },
        {
          "name": "_resolver",
          "type": "address"
        },
        {
          "name": "_fee",
          "type": "uint256"
        }
      ],
      "name": "createEscrow",
      "outputs": [
        {
          "name": "success",
          "type": "bool"
        }
      ],
      "payable": false,
      "stateMutability": "nonpayable",
      "type": "function"
    },
    {
      "constant": false,
      "inputs": [
        {
          "name": "_id",
          "type": "bytes32"
        }
      ],
      "name": "approveEscrow",
      "outputs": [
        {
          "name": "success",
          "type": "bool"
        }
      ],
      "payable": false,
      "stateMutability": "nonpayable",
      "type": "function"
    },
    {
      "constant": false,
      "inputs": [
        {
          "name": "_id",
          "type": "bytes32"
        }
      ],
      "name": "cancelEscrow",
      "outputs": [
        {
          "name": "success",
          "type": "bool"
        }
      ],
      "payable": false,
      "stateMutability": "nonpayable",
      "type": "function"
    },
    {
      "constant": false,
      "inputs": [
        {
          "name": "_id",
          "type": "bytes32"
        }
      ],
      "name": "raiseDispute",
      "outputs": [
        {
          "name": "success",
          "type": "bool"
        }
      ],
      "payable": false,
      "stateMutability": "nonpayable",
      "type": "function"
    },
    {
      "constant": false,
      "inputs": [
        {
          "name": "_id",
          "type": "bytes32"
        },
        {
          "name": "_decision",
          "type": "uint256"
        }
      ],
      "name": "resolveDispute",
      "outputs": [
        {
          "name": "success",
          "type": "bool"
        }
      ],
      "payable": false,
      "stateMutability": "nonpayable",
      "type": "function"
    },
    {
      "constant": false,
      "inputs": [],
      "name": "killContract",
      "outputs": [],
      "payable": false,
      "stateMutability": "nonpayable",
      "type": "function"
    }
  ],
  "bytecode": "0x608060405234801561001057600080fd5b506040516020806120fb8339810180604052602081101561003057600080fd5b8101908080519060200190929190505050336000806101000a81548173ffffffffffffffffffffffffffffffffffffffff021916908373ffffffffffffffffffffffffffffffffffffffff1602179055504260018190555080600260006101000a81548173ffffffffffffffffffffffffffffffffffffffff021916908373ffffffffffffffffffffffffffffffffffffffff16021790555050612022806100d96000396000f3fe608060405234801561001057600080fd5b50600436106100bb576000357c010000000000000000000000000000000000000000000000000000000090048063d8270dce11610083578063d8270dce146102a2578063df6f06b7146102c0578063e14f5b7d1461035a578063ee5e3b81146103a0578063f4940f01146103e6576100bb565b80631c02708d146100c05780636db15b10146100ca5780638da5cb5b1461011a5780639d76ea5814610164578063a7e75032146101ae575b600080fd5b6100c861042c565b005b610100600480360360408110156100e057600080fd5b810190808035906020019092919080359060200190929190505050610529565b604051808215151515815260200191505060405180910390f35b610122610bf3565b604051808273ffffffffffffffffffffffffffffffffffffffff1673ffffffffffffffffffffffffffffffffffffffff16815260200191505060405180910390f35b61016c610c18565b604051808273ffffffffffffffffffffffffffffffffffffffff1673ffffffffffffffffffffffffffffffffffffffff16815260200191505060405180910390f35b6101da600480360360208110156101c457600080fd5b8101908080359060200190929190505050610c3e565b604051808881526020018773ffffffffffffffffffffffffffffffffffffffff1673ffffffffffffffffffffffffffffffffffffffff1681526020018673ffffffffffffffffffffffffffffffffffffffff1673ffffffffffffffffffffffffffffffffffffffff1681526020018573ffffffffffffffffffffffffffffffffffffffff1673ffffffffffffffffffffffffffffffffffffffff1681526020018481526020018381526020018215151515815260200197505050505050505060405180910390f35b6102aa610ced565b6040518082815260200191505060405180910390f35b610340600480360360a08110156102d657600080fd5b810190808035906020019092919080359060200190929190803573ffffffffffffffffffffffffffffffffffffffff169060200190929190803573ffffffffffffffffffffffffffffffffffffffff16906020019092919080359060200190929190505050610cf3565b604051808215151515815260200191505060405180910390f35b6103866004803603602081101561037057600080fd5b81019080803590602001909291905050506111d1565b604051808215151515815260200191505060405180910390f35b6103cc600480360360208110156103b657600080fd5b810190808035906020019092919050505061154e565b604051808215151515815260200191505060405180910390f35b610412600480360360208110156103fc57600080fd5b8101908080359060200190929190505050611a08565b604051808215151515815260200191505060405180910390f35b6000809054906101000a900473ffffffffffffffffffffffffffffffffffffffff168073ffffffffffffffffffffffffffffffffffffffff163373ffffffffffffffffffffffffffffffffffffffff16146104ef576040517f08c379a00000000000000000000000000000000000000000000000000000000081526004018080602001828103825260118152602001807f666f7262696464656e207265717565737400000000000000000000000000000081525060200191505060405180910390fd5b6000809054906101000a900473ffffffffffffffffffffffffffffffffffffffff1673ffffffffffffffffffffffffffffffffffffffff16ff5b60006003600084815260200190815260200160002060060160009054906101000a900460ff166105c1576040517f08c379a00000000000000000000000000000000000000000000000000000000081526004018080602001828103825260158152602001807f657363726f7720646f6573206e6f74206578697374000000000000000000000081525060200191505060405180910390fd5b3373ffffffffffffffffffffffffffffffffffffffff166003600085815260200190815260200160002060030160009054906101000a900473ffffffffffffffffffffffffffffffffffffffff1673ffffffffffffffffffffffffffffffffffffffff1614610698576040517f08c379a00000000000000000000000000000000000000000000000000000000081526004018080602001828103825260108152602001807f6f6e6c79206279207265736f6c7665720000000000000000000000000000000081525060200191505060405180910390fd5b60038060008581526020019081526020016000206005015414806106d2575060046003600085815260200190815260200160002060050154145b610744576040517f08c379a00000000000000000000000000000000000000000000000000000000081526004018080602001828103825260198152602001807f657363726f772073686f756c642062652064697370757465640000000000000081525060200191505060405180910390fd5b60008214806107535750600182145b6107a8576040517f08c379a0000000000000000000000000000000000000000000000000000000008152600401808060200182810382526034815260200180611fc36034913960400191505060405180910390fd5b600260009054906101000a900473ffffffffffffffffffffffffffffffffffffffff1673ffffffffffffffffffffffffffffffffffffffff1663a9059cbb6003600086815260200190815260200160002060030160009054906101000a900473ffffffffffffffffffffffffffffffffffffffff1660036000878152602001908152602001600020600401546040518363ffffffff167c0100000000000000000000000000000000000000000000000000000000028152600401808373ffffffffffffffffffffffffffffffffffffffff1673ffffffffffffffffffffffffffffffffffffffff16815260200182815260200192505050602060405180830381600087803b1580156108b957600080fd5b505af11580156108cd573d6000803e3d6000fd5b505050506040513d60208110156108e357600080fd5b8101908080519060200190929190505050506000821415610a6857600260009054906101000a900473ffffffffffffffffffffffffffffffffffffffff1673ffffffffffffffffffffffffffffffffffffffff1663a9059cbb6003600086815260200190815260200160002060010160009054906101000a900473ffffffffffffffffffffffffffffffffffffffff1660036000878152602001908152602001600020600001546040518363ffffffff167c0100000000000000000000000000000000000000000000000000000000028152600401808373ffffffffffffffffffffffffffffffffffffffff1673ffffffffffffffffffffffffffffffffffffffff16815260200182815260200192505050602060405180830381600087803b158015610a0f57600080fd5b505af1158015610a23573d6000803e3d6000fd5b505050506040513d6020811015610a3957600080fd5b810190808051906020019092919050505050600560036000858152602001908152602001600020600501819055505b6001821415610bdf57600260009054906101000a900473ffffffffffffffffffffffffffffffffffffffff1673ffffffffffffffffffffffffffffffffffffffff1663a9059cbb6003600086815260200190815260200160002060020160009054906101000a900473ffffffffffffffffffffffffffffffffffffffff1660036000878152602001908152602001600020600001546040518363ffffffff167c0100000000000000000000000000000000000000000000000000000000028152600401808373ffffffffffffffffffffffffffffffffffffffff1673ffffffffffffffffffffffffffffffffffffffff16815260200182815260200192505050602060405180830381600087803b158015610b8257600080fd5b505af1158015610b96573d6000803e3d6000fd5b505050506040513d6020811015610bac57600080fd5b81019080805190602001909291905050505060066003600085815260200190815260200160002060050181905550610be8565b60009050610bed565b600190505b92915050565b6000809054906101000a900473ffffffffffffffffffffffffffffffffffffffff1681565b600260009054906101000a900473ffffffffffffffffffffffffffffffffffffffff1681565b60036020528060005260406000206000915090508060000154908060010160009054906101000a900473ffffffffffffffffffffffffffffffffffffffff16908060020160009054906101000a900473ffffffffffffffffffffffffffffffffffffffff16908060030160009054906101000a900473ffffffffffffffffffffffffffffffffffffffff16908060040154908060050154908060060160009054906101000a900460ff16905087565b60015481565b6000808210158015610d0757506127108211155b610d79576040517f08c379a00000000000000000000000000000000000000000000000000000000081526004018080602001828103825260188152602001807f666565206d75737420626520612070657263656e74616765000000000000000081525060200191505060405180910390fd5b6003600087815260200190815260200160002060060160009054906101000a900460ff1615610e10576040517f08c379a000000000000000000000000000000000000000000000000000000000815260040180806020018281038252600d8152602001807f657363726f77206578697374730000000000000000000000000000000000000081525060200191505060405180910390fd5b610e18611f41565b8581600001818152505033816020019073ffffffffffffffffffffffffffffffffffffffff16908173ffffffffffffffffffffffffffffffffffffffff168152505084816040019073ffffffffffffffffffffffffffffffffffffffff16908173ffffffffffffffffffffffffffffffffffffffff168152505083816060019073ffffffffffffffffffffffffffffffffffffffff16908173ffffffffffffffffffffffffffffffffffffffff16815250506000610edf8488611ec290919063ffffffff16565b9050610ef661271082611efc90919063ffffffff16565b90508082608001818152505060008260a001818152505060018260c00190151590811515815250506000610f338289611f2290919063ffffffff16565b9050600260009054906101000a900473ffffffffffffffffffffffffffffffffffffffff1673ffffffffffffffffffffffffffffffffffffffff166323b872dd3330846040518463ffffffff167c0100000000000000000000000000000000000000000000000000000000028152600401808473ffffffffffffffffffffffffffffffffffffffff1673ffffffffffffffffffffffffffffffffffffffff1681526020018373ffffffffffffffffffffffffffffffffffffffff1673ffffffffffffffffffffffffffffffffffffffff1681526020018281526020019350505050602060405180830381600087803b15801561102e57600080fd5b505af1158015611042573d6000803e3d6000fd5b505050506040513d602081101561105857600080fd5b81019080805190602001909291905050505082600360008b81526020019081526020016000206000820151816000015560208201518160010160006101000a81548173ffffffffffffffffffffffffffffffffffffffff021916908373ffffffffffffffffffffffffffffffffffffffff16021790555060408201518160020160006101000a81548173ffffffffffffffffffffffffffffffffffffffff021916908373ffffffffffffffffffffffffffffffffffffffff16021790555060608201518160030160006101000a81548173ffffffffffffffffffffffffffffffffffffffff021916908373ffffffffffffffffffffffffffffffffffffffff1602179055506080820151816004015560a0820151816005015560c08201518160060160006101000a81548160ff021916908315150217905550905050887fbe2138f34775fe44d3adbb80664e2a1c2f60a35e0ffb503741b05ccacd995e3860405160405180910390a26001935050505095945050505050565b60006003600083815260200190815260200160002060060160009054906101000a900460ff16611269576040517f08c379a00000000000000000000000000000000000000000000000000000000081526004018080602001828103825260158152602001807f657363726f7720646f6573206e6f74206578697374000000000000000000000081525060200191505060405180910390fd5b3373ffffffffffffffffffffffffffffffffffffffff166003600084815260200190815260200160002060010160009054906101000a900473ffffffffffffffffffffffffffffffffffffffff1673ffffffffffffffffffffffffffffffffffffffff16148061133a57503373ffffffffffffffffffffffffffffffffffffffff166003600084815260200190815260200160002060020160009054906101000a900473ffffffffffffffffffffffffffffffffffffffff1673ffffffffffffffffffffffffffffffffffffffff16145b6113ac576040517f08c379a000000000000000000000000000000000000000000000000000000000815260040180806020018281038252601d8152602001807f6f6e6c79206279206465706f7369746572206f7220726563656976657200000081525060200191505060405180910390fd5b6000600360008481526020019081526020016000206005015414611438576040517f08c379a00000000000000000000000000000000000000000000000000000000081526004018080602001828103825260158152602001807f657363726f77206d75737420626520616374697665000000000000000000000081525060200191505060405180910390fd5b6003600083815260200190815260200160002060010160009054906101000a900473ffffffffffffffffffffffffffffffffffffffff1673ffffffffffffffffffffffffffffffffffffffff163373ffffffffffffffffffffffffffffffffffffffff1614156114be576003806000848152602001908152602001600020600501819055505b6003600083815260200190815260200160002060020160009054906101000a900473ffffffffffffffffffffffffffffffffffffffff1673ffffffffffffffffffffffffffffffffffffffff163373ffffffffffffffffffffffffffffffffffffffff16141561154557600460036000848152602001908152602001600020600501819055505b60019050919050565b60006003600083815260200190815260200160002060060160009054906101000a900460ff166115e6576040517f08c379a00000000000000000000000000000000000000000000000000000000081526004018080602001828103825260158152602001807f657363726f7720646f6573206e6f74206578697374000000000000000000000081525060200191505060405180910390fd5b3373ffffffffffffffffffffffffffffffffffffffff166003600084815260200190815260200160002060020160009054906101000a900473ffffffffffffffffffffffffffffffffffffffff1673ffffffffffffffffffffffffffffffffffffffff16146116bd576040517f08c379a00000000000000000000000000000000000000000000000000000000081526004018080602001828103825260108152602001807f6f6e6c792062792072656365697665720000000000000000000000000000000081525060200191505060405180910390fd5b6000600360008481526020019081526020016000206005015414611749576040517f08c379a00000000000000000000000000000000000000000000000000000000081526004018080602001828103825260158152602001807f657363726f77206d75737420626520616374697665000000000000000000000081525060200191505060405180910390fd5b600260009054906101000a900473ffffffffffffffffffffffffffffffffffffffff1673ffffffffffffffffffffffffffffffffffffffff1663a9059cbb6003600085815260200190815260200160002060010160009054906101000a900473ffffffffffffffffffffffffffffffffffffffff1660036000868152602001908152602001600020600001546040518363ffffffff167c0100000000000000000000000000000000000000000000000000000000028152600401808373ffffffffffffffffffffffffffffffffffffffff1673ffffffffffffffffffffffffffffffffffffffff16815260200182815260200192505050602060405180830381600087803b15801561185a57600080fd5b505af115801561186e573d6000803e3d6000fd5b505050506040513d602081101561188457600080fd5b810190808051906020019092919050505050600260009054906101000a900473ffffffffffffffffffffffffffffffffffffffff1673ffffffffffffffffffffffffffffffffffffffff1663a9059cbb6003600085815260200190815260200160002060030160009054906101000a900473ffffffffffffffffffffffffffffffffffffffff1660036000868152602001908152602001600020600401546040518363ffffffff167c0100000000000000000000000000000000000000000000000000000000028152600401808373ffffffffffffffffffffffffffffffffffffffff1673ffffffffffffffffffffffffffffffffffffffff16815260200182815260200192505050602060405180830381600087803b1580156119a757600080fd5b505af11580156119bb573d6000803e3d6000fd5b505050506040513d60208110156119d157600080fd5b8101908080519060200190929190505050506002600360008481526020019081526020016000206005018190555060019050919050565b60006003600083815260200190815260200160002060060160009054906101000a900460ff16611aa0576040517f08c379a00000000000000000000000000000000000000000000000000000000081526004018080602001828103825260158152602001807f657363726f7720646f6573206e6f74206578697374000000000000000000000081525060200191505060405180910390fd5b3373ffffffffffffffffffffffffffffffffffffffff166003600084815260200190815260200160002060010160009054906101000a900473ffffffffffffffffffffffffffffffffffffffff1673ffffffffffffffffffffffffffffffffffffffff1614611b77576040517f08c379a00000000000000000000000000000000000000000000000000000000081526004018080602001828103825260118152602001807f6f6e6c79206279206465706f736974657200000000000000000000000000000081525060200191505060405180910390fd5b6000600360008481526020019081526020016000206005015414611c03576040517f08c379a00000000000000000000000000000000000000000000000000000000081526004018080602001828103825260158152602001807f657363726f77206d75737420626520616374697665000000000000000000000081525060200191505060405180910390fd5b600260009054906101000a900473ffffffffffffffffffffffffffffffffffffffff1673ffffffffffffffffffffffffffffffffffffffff1663a9059cbb6003600085815260200190815260200160002060020160009054906101000a900473ffffffffffffffffffffffffffffffffffffffff1660036000868152602001908152602001600020600001546040518363ffffffff167c0100000000000000000000000000000000000000000000000000000000028152600401808373ffffffffffffffffffffffffffffffffffffffff1673ffffffffffffffffffffffffffffffffffffffff16815260200182815260200192505050602060405180830381600087803b158015611d1457600080fd5b505af1158015611d28573d6000803e3d6000fd5b505050506040513d6020811015611d3e57600080fd5b810190808051906020019092919050505050600260009054906101000a900473ffffffffffffffffffffffffffffffffffffffff1673ffffffffffffffffffffffffffffffffffffffff1663a9059cbb6003600085815260200190815260200160002060030160009054906101000a900473ffffffffffffffffffffffffffffffffffffffff1660036000868152602001908152602001600020600401546040518363ffffffff167c0100000000000000000000000000000000000000000000000000000000028152600401808373ffffffffffffffffffffffffffffffffffffffff1673ffffffffffffffffffffffffffffffffffffffff16815260200182815260200192505050602060405180830381600087803b158015611e6157600080fd5b505af1158015611e75573d6000803e3d6000fd5b505050506040513d6020811015611e8b57600080fd5b8101908080519060200190929190505050506001600360008481526020019081526020016000206005018190555060019050919050565b600080831415611ed55760009050611ef6565b6000828402905082848281611ee657fe5b0414611ef157600080fd5b809150505b92915050565b6000808211611f0a57600080fd5b6000828481611f1557fe5b0490508091505092915050565b600080828401905083811015611f3757600080fd5b8091505092915050565b6040518060e0016040528060008152602001600073ffffffffffffffffffffffffffffffffffffffff168152602001600073ffffffffffffffffffffffffffffffffffffffff168152602001600073ffffffffffffffffffffffffffffffffffffffff1681526020016000815260200160008152602001600015158152509056fe6465636973696f6e2068617320746f20626520696e206661766f72206f66206465706f7369746572206f72207265636569766572a165627a7a72305820266800a64215307d6df5c88462f462bc080ddd43da763c39c03963690b8cbe400029",
  "source": "pragma solidity 0.5.7;\r\n\r\n/**\r\n@dev Contract for escrowing xToken\r\nUsed as an escrow service. Configirable to any ERC-20 token.\r\n@author https://github.com/parthvshah\r\n*/\r\n\r\n/**\r\n * @title SafeMath\r\n * @dev Math operations with safety checks that throw on error\r\n */\r\nlibrary SafeMath {\r\n\t/**\r\n    * @dev Multiplies two unsigned integers, reverts on overflow.\r\n    */\r\n    function mul(uint256 a, uint256 b) internal pure returns (uint256) {\r\n        if (a == 0) {\r\n            return 0;\r\n        }\r\n\r\n        uint256 c = a * b;\r\n        require(c / a == b);\r\n\r\n        return c;\r\n    }\r\n\r\n    /**\r\n    * @dev Integer division of two unsigned integers truncating the quotient, reverts on division by zero.\r\n    */\r\n    function div(uint256 a, uint256 b) internal pure returns (uint256) {\r\n        // Solidity only automatically asserts when dividing by 0\r\n        require(b > 0);\r\n        uint256 c = a / b;\r\n\r\n        return c;\r\n    }\r\n\r\n\t/**\r\n\t* @dev Subtracts two numbers, throws on overflow (i.e. if subtrahend is greater than minuend).\r\n\t*/\r\n    function sub(uint256 a, uint256 b) internal pure returns (uint256) {\r\n        require(b <= a);\r\n        uint256 c = a - b;\r\n        return c;\r\n    }\r\n\r\n\t/**\r\n\t* @dev Adds two numbers, throws on overflow.\r\n\t*/\r\n    function add(uint256 a, uint256 b) internal pure returns (uint256) {\r\n\t\tuint256 c = a + b;\r\n\t\trequire(c >= a);\r\n\t\treturn c;\r\n    }\r\n}\r\n/**\r\n@dev Token contract\r\nUsed to transfer, transferFrom ERC-20 tokens\r\n*/\r\ncontract Token{\r\n\tfunction transfer(address _to, uint256 _value) public returns(bool success);\r\n\tfunction transferFrom(address _from, address _to, uint256 _value) public returns(bool success);\r\n}\r\n\r\ncontract variableLabsEscrow{\r\n    using SafeMath for uint256;\r\n\r\n    /**\r\n    @dev Modifier for protecting functions\r\n    @param _address \r\n    The function is executed only if the sender address is the same as _address\r\n    */\r\n    modifier onlyBy(address _address) {\r\n\t\trequire(msg.sender == _address, \"forbidden request\");\r\n\t\t_;\r\n    }\r\n\r\n    /**\r\n    @dev Owner and creation time\r\n    The address of the owner is stored with the time of creation of the contract.\r\n    */\r\n    address payable public owner;\r\n    uint public creationTime;\r\n\r\n\t/**\r\n    @dev Address to an ERC-20 token for transfer, transferToken functionality\r\n    */\r\n\taddress public tokenAddress;\r\n\r\n\t/**\r\n    @dev Escrow structure \r\n    Stores the funds in Tokens, addresses of the depositer, receiver, resolver fees and state.\r\n\tStates:\r\n\t0 - Active\r\n\t1 - Approved\r\n\t2 - Cancelled\r\n\t3 - Disputed: By depositer\r\n\t4 - Disputed: By receiver\r\n\t5 - Resolved: In favor of depositer\r\n\t6 - Resolved: In favor of receiver\r\n    */\r\n\tstruct Escrow{\r\n\t\tuint256 funds;\r\n\t\taddress depositer;\r\n\t\taddress receiver;\r\n\t\taddress resolver;\r\n\t\tuint256 fee;\r\n\t\tuint256 state;\r\n\t\tbool exists;\r\n\t}\r\n\r\n\t/**\r\n    @dev Event to log the creation of an escrow\r\n\tLogs the unique ID that is used to identify an escrow. Can be queried to obtain additional escrow details.\r\n    */\r\n\tevent Creation(\r\n\t\tbytes32 indexed _id\r\n\t);\r\n\r\n\t/**\r\n    @dev Maps a unique ID to an escrow with additional details.\r\n    */\r\n\tmapping (bytes32 => Escrow) public escrow;\r\n\r\n\t/**\r\n    @dev Constructor for the contract.\r\n\t@param _tokenAddress \r\n\tSets up the owner, creation time and token address of the ERC-20 token.\r\n    */\r\n\tconstructor(address _tokenAddress) public {\r\n\t\towner = msg.sender;\r\n\t\tcreationTime = now;\r\n\t\ttokenAddress = _tokenAddress;\r\n\t}\r\n\t\r\n\t/**\r\n    @dev Create an escrow.\r\n\t@param _id @param _funds @param _receiver @param _resolver @param _fee \r\n\tCreates an escrow using the unique ID. Sets the funds, receiver, resolver and a fee in percentage. Sets the state of the escrow.\r\n\tIt transfers the funds, creates an escrow and emits an event.\r\n    */\r\n\tfunction createEscrow(bytes32 _id, uint256 _funds, address _receiver, address _resolver, uint256 _fee) public returns(bool success){\t\t\r\n\t\trequire((_fee >= 0) && (_fee <= 10000), \"fee must be a percentage\");\r\n\t\tif(escrow[_id].exists) \r\n\t\t\trevert(\"escrow exists\");\r\n\r\n\t\tEscrow memory currentEscrow;\r\n\t\tcurrentEscrow.funds = _funds;\r\n\t\tcurrentEscrow.depositer = msg.sender;\r\n\t\tcurrentEscrow.receiver = _receiver;\r\n\t\tcurrentEscrow.resolver = _resolver;\r\n\r\n\t\t// Sender must approve this contract to spend the said amount of funds+fees before it can be transfered.\r\n\t\tuint256 _feeAmount = _funds.mul(_fee);\r\n\t\t_feeAmount = _feeAmount.div(10000);\r\n\r\n\t\tcurrentEscrow.fee = _feeAmount;\r\n\t\tcurrentEscrow.state = 0;\r\n\t\tcurrentEscrow.exists = true;\r\n\r\n\t\tuint256 _total = _funds.add(_feeAmount);\r\n\t\tToken(tokenAddress).transferFrom(msg.sender, address(this), _total);\r\n\r\n\t\tescrow[_id] = currentEscrow;\r\n\t\temit Creation(_id);\r\n\t\treturn true;\r\n\t}\r\n\r\n\t/**\r\n    @dev Depositer approves an escrow.\r\n\t@param _id \r\n\tTransfers funds to the receiver in the escrow, transfers the fee to the resolver and changes the state of the escrow.\r\n    */\r\n\tfunction approveEscrow(bytes32 _id) public returns(bool success){\r\n\t\tif(!escrow[_id].exists) \r\n\t\t\trevert(\"escrow does not exist\");\r\n\t\trequire(escrow[_id].depositer == msg.sender, \"only by depositer\");\r\n\t\trequire(escrow[_id].state == 0, \"escrow must be active\");\r\n\r\n\t\tToken(tokenAddress).transfer(escrow[_id].receiver, escrow[_id].funds);\r\n\t\tToken(tokenAddress).transfer(escrow[_id].resolver, escrow[_id].fee);\r\n\r\n\t\tescrow[_id].state = 1;\r\n\r\n\t\treturn true;\r\n\t}\r\n\r\n\t/**\r\n    @dev Reciever cancels an escrow.\r\n\t@param _id \r\n\tTransfers funds to the depositer in the escrow, transfers the fee to the resolver and changes the state of the escrow.\r\n    */\r\n\tfunction cancelEscrow(bytes32 _id) public returns(bool success){\r\n\t\tif(!escrow[_id].exists) \r\n\t\t\trevert(\"escrow does not exist\");\r\n\t\trequire(escrow[_id].receiver == msg.sender, \"only by receiver\");\r\n\t\trequire(escrow[_id].state == 0, \"escrow must be active\");\r\n\t\t\r\n\r\n\t\tToken(tokenAddress).transfer(escrow[_id].depositer, escrow[_id].funds);\r\n\t\tToken(tokenAddress).transfer(escrow[_id].resolver, escrow[_id].fee);\r\n\r\n\t\tescrow[_id].state = 2;\r\n\r\n\t\treturn true;\r\n\t}\r\n\r\n\t/**\r\n    @dev Depositer or receiver raises a dispute.\r\n\t@param _id \r\n\tTransfers funds to the receiver in the escrow, transfers the fee to the resolver and changes the state of the escrow.\r\n    */\r\n\tfunction raiseDispute(bytes32 _id) public returns(bool success){\r\n\t\tif(!escrow[_id].exists) \r\n\t\t\trevert(\"escrow does not exist\");\r\n\t\trequire((escrow[_id].depositer == msg.sender) || (escrow[_id].receiver == msg.sender), \"only by depositer or receiver\");\r\n\t\trequire(escrow[_id].state == 0, \"escrow must be active\");\r\n\r\n\t\tif(msg.sender == escrow[_id].depositer){\r\n\t\t\tescrow[_id].state = 3;\r\n\t\t}\r\n\t\tif(msg.sender == escrow[_id].receiver){\r\n\t\t\tescrow[_id].state = 4;\r\n\t\t}\r\n\r\n\t\treturn true;\r\n\t}\r\n\r\n\t/**\r\n    @dev Resolver resolves a dispute. \r\n\t@param _id @param _decision\r\n\tResolver resolves a disputed contract in either direction. Funds and fees are transferred.\r\n    */\r\n\tfunction resolveDispute(bytes32 _id, uint256 _decision) public returns (bool success){\r\n\t\tif(!escrow[_id].exists) \r\n\t\t\trevert(\"escrow does not exist\");\r\n\t\trequire(escrow[_id].resolver == msg.sender, \"only by resolver\");\r\n\t\trequire((escrow[_id].state == 3) || (escrow[_id].state == 4), \"escrow should be disputed\");\r\n\t\trequire((_decision == 0) || (_decision == 1), \"decision has to be in favor of depositer or receiver\");\r\n\r\n\t\tToken(tokenAddress).transfer(escrow[_id].resolver, escrow[_id].fee);\r\n\r\n\t\t// Funds go to depositer\r\n\t\tif(_decision == 0){\r\n\t\t\tToken(tokenAddress).transfer(escrow[_id].depositer, escrow[_id].funds);\r\n\r\n\t\t\tescrow[_id].state = 5;\r\n\t\t}\r\n\t\t// Funds go to receiver\r\n\t\tif(_decision == 1){\r\n\t\t\tToken(tokenAddress).transfer(escrow[_id].receiver, escrow[_id].funds);\r\n\r\n\t\t\tescrow[_id].state = 6;\r\n\t\t}\r\n\t\telse{\r\n\t\t\treturn false;\r\n\t\t}\r\n\t\treturn true;\r\n\r\n\t}\r\n\r\n\t/**\r\n    @dev Destroys a contract\r\n\tTemporary functionality.\r\n    */\r\n\tfunction killContract() public onlyBy(owner){\r\n\t\tselfdestruct(owner);\r\n\t}\r\n\r\n}",
  "sourcePath": "C:/Users/parth/Documents/VariableLabs/escrow/contracts/variableLabsEscrow.sol",
  "compiler": {
    "name": "solc",
    "version": "0.5.7+commit.6da8b019.Emscripten.clang"
  },
  "schemaVersion": "3.0.2",
  "updatedAt": "2019-04-17T06:35:04.387Z",
  "devdoc": {
    "methods": {
      "approveEscrow(bytes32)": {
        "details": "Depositer approves an escrow.\r",
        "params": {
          "_id": "\r Transfers funds to the receiver in the escrow, transfers the fee to the resolver and changes the state of the escrow.\r"
        }
      },
      "cancelEscrow(bytes32)": {
        "details": "Reciever cancels an escrow.\r",
        "params": {
          "_id": "\r Transfers funds to the depositer in the escrow, transfers the fee to the resolver and changes the state of the escrow.\r"
        }
      },
      "constructor": {
        "details": "Constructor for the contract.\r",
        "params": {
          "_tokenAddress": "\r Sets up the owner, creation time and token address of the ERC-20 token.\r"
        }
      },
      "createEscrow(bytes32,uint256,address,address,uint256)": {
        "details": "Create an escrow.\r",
        "params": {
          "_id": "@param _funds @param _receiver @param _resolver @param _fee \r Creates an escrow using the unique ID. Sets the funds, receiver, resolver and a fee in percentage. Sets the state of the escrow.\r It transfers the funds, creates an escrow and emits an event.\r"
        }
      },
      "killContract()": {
        "details": "Destroys a contract\r Temporary functionality.\r"
      },
      "raiseDispute(bytes32)": {
        "details": "Depositer or receiver raises a dispute.\r",
        "params": {
          "_id": "\r Transfers funds to the receiver in the escrow, transfers the fee to the resolver and changes the state of the escrow.\r"
        }
      },
      "resolveDispute(bytes32,uint256)": {
        "details": "Resolver resolves a dispute. \r",
        "params": {
          "_id": "@param _decision\r Resolver resolves a disputed contract in either direction. Funds and fees are transferred.\r"
        }
      }
    }
  },
  "userdoc": {
    "methods": {}
  }
}